:20000000004B002081460100FDC90110FDC90110FDC90110FDC90110FDC90110FDC90110A3
:1C002000FDC90110FDC90110FDC90110FDC90110FDC90110FDC901103BCA0110A4
:20003C00000105090004081000040810020402010101010902000120181A18182C34041E41
:20005C00000C0E020B040B0A070800110F00A6AAACA4A9A9A399B19ABCB6A8313117191AD6
:20007C0021241B1D1F31313331313118191A22311C1E20313134310000000500BD00B70068
:20009C00B100BC001C00300038000800380102000000000002000000020000000A00000002
:2000BC0002000000020001000000000000000000000000000000000000000000000000001F
:2000DC00000000000E000000C003000080070000000F0000001E0000003C000000780000CB
:2000FC0000F0000000E0010000C003000080070000000F0000001E0000003C0000007800E8
:20011C000000F0000000F00038C40D00C80000008100000032000F0100C50D0090010000EC
:20013C004000000096000501952B0D00C80000002200000032000F020000000000000000CD
:20015C0000000000000000000000000000000000000000000000000000000200000002007F
:20017C00020002000000320004000100000002000000000000000000050001000000070019
:20019C00060001000000030007000800000000000F0001000100FF00100008000000000002
:2001BC0018000800000000002200020000000000010171010101010111010101310101011F
:2001DC00010180010001100161013B001400630173017201620143010001130106013D0171
:2001FC00350004011201000100010001000104010401330133013C01440132013600000134
:20021C00000165010001350081010001050182018301000166010001000108010901030213
:20023C007102300160021102700201020202020280020002100261023A00410063027302BE
:20025C007202620243020002130238000002000204021202000200020002000204020402E4
:20027C00370037003C024402000239000002000265020002350281020002050282028302FC
:20029C00000266020002000208020902030471040204600411047004020402040104020439
:2002BC00000410046104000414046304730472046204430400041304060400040004040453
:2002DC00120400040004000400045104640000040004000444040004000400040004650456
:2002FC00000435048104640005040004830400046604000400040804090400003600010062
:20031C000600000000000000000F000000000000000000000000000000000300FFFF0000AB
:20033C000403FFFF0000FFFF0F00E8030005401F0310000101000000FF3F0F0008000E00C8
:20035C0000000000000000000300010F000009010000000000000000000000000000000064
:20037C0000000000000000000000000000000000000000000000000000000000AD000001B3
:20039C00000000000001363601010001020100010301000104010606080400000C0100346A
:2003BC000D01000F10040101140100FF1608000020020000220100FF23010001240100FE30
:2003DC00250100082602000028010001290100012A0200002C01000F2E020000300100018C
:2003FC0031010008320200FF34010007350102FF360100003701000138010001390100FF1E
:20041C003A01000F3C0200FF3E01010F3F0100014001041F41010001420100FF43010080FC
:20043C00440800004E0100084F01000F50010001510100FF5201000A53010089540100016B
:20045C00580400005C0400006004000064040000680400006C040000700400007404000030
:20047C00780400007C040000800100FF81010001820100018301010284010001354525151C
:20049C0002030504FFFFFFFFFFFFFFFF9A1000000000000000000000000000000000000090
:2004BC00000000000000000000000000000000000000FAFA14000000000000000000000117
:2004DC000000010100000000000000000000000000000000000000000000000000000000FE
:2004FC000000000000000000000000000000000000000000000000000000000000000000E0
:20051C0000000000000000780008020030000A00000800000000000000000804FA000000F5
:20053C00FFFFFF000C1100000000000000001D1100000000000000002E010F000000FA001F
:20055C0000002F0100000000FA000000300100000000FF000000310100000000FF000000F4
:20057C00320100000000030000003301000000000300000034010000000001000000350285
:20059C0000000000FFFF0000370200000000FF000000390200000000FF0000003B02000092
:2005BC000000FFFF00003D0100000000FF0000003E0100000000010000003F010000000064
:2005DC00010000004001000000000700000041200000000000000000610200000000FFFFF4
:2005FC000000630800000000000000006B0800000000000000007308000000000000000086
:20061C007B0800000000000000008302050000005802000085010000000010000000860239
:20063C000000000032000000880200000000320000008A02000000000A0000000075320172
:20065C000000B1FE00000213F4000000177D01000113F4000000177D010003C5E5000000E7
:20067C00177D010004877C010000177D010001997C010001937C010001177D010001177DD9
:20069C00010001177D010000954C010001177D010001177D010001177D010001177D01006D
:2006BC0002997C010002937C010002177D010000954C010002177D010002177D010002A1AA
:2006DC0034010002177D0100046BF3000000177D010003997C010003937C01000313F40005
:2006FC00000313F4000003177D010003C5E5000003177D010000954C010003177D0100037A
:20071C00177D010004997C010004937C01000413F400000413F400000413F40000046BF377
:20073C00000004177D010004177D010004817C010000954C01000104D53500000300000075
:20075C0000040000E1F701007FF90100D3F90100F1F3010051F40100C9F8010055FA01001D
:20077C00BBF90100A5FA0100F1F2010009F5010061F90100F5F801005DF50100B1FA0100DD
:20079C00C9FA010091FA01007DFA010037FA010029FA0100C9F6010063FA0100A1F9010066
:2007BC0009FA010091F60100D3FA0100191D0100615A010001F00100B1F5010029F101001C
:2007DC00F1F90100D14C010011720100F9710100ADF40100357A0100277A01004DF60100CD
:2007FC000000000000000000A57B01009D78010009F70100000000000000000000000000A5
:20081C0000000000000104000033333333333333330000000000000000000000000000001F
:20083C000100000000000000020000000000000003333333333333333303010000000000FA
:20085C00000000000000000000007F000000000000000000000000000000007F000000007E
:20087C000000000000000000000000007F00000000000000000000000000000000616461B7
:20089C006D732D74657374000000000000000000000000000000000000000000000000006F
:2008BC004D080000010000005C0B0000080000005207000001123456789ABCDEF0000000C5
:2008DC000000000000000000000000000300710030016000110070003102200350040000CC
:2008FC00070010006100000014006300730072006200430000001300060000000000040046
:20091C001200000000000000000004000400370037003C024400000000000000000065004C
:20093C000000350081000000050000008300000066000000000008000900FF7F1404C0A0F0
:20095C00FE0000001404C0A00A0480A0090480A008400080FE0000000608808007088080C7
:20097C000D2007C00E2007C01400C080024000800300C0800108C0801E08808009400080E1
:20099C00084000800A4000800F088080FE0000008F0000008F0001008F0002008F00030052
:2009BC00900000018F00010190000002900000038F0001048F0000058F0008048F0000047E
:2009DC008A000006510000007F0001003F0004003F0002003F0001007F0002007B756E6B8C
:2009FC006E6F776E2D696E7374616E63652D6E616D657D007B656D7074792D696E73746156
:200A1C006E63652D6E616D657D00C0467B7374617469632D696E7374616E63652D6E616D45
:200A3C00657D00C000000102030410000810182004040810181C10040810181C00000000DA
:200A5C000800000000000000200000004000000060000000000000000600000002000000AA
:200A7C008600000082000000000000800020008000400080000000800004008000080080E6
:200A9C0000008080000080840020808400408084000000000000058000000680000007803C
:200ABC0000000000000000008D0B0100B52E0100D172010011A0000021B60000BD7C010097
:200ADC00B125010085BF0000C37C0100E50F0100001000400600000015000000FF00000040
:200AFC00000000000302FFFF6836002020000000010300000000000000000000FFFFFFFFF9
:200B1C00FFFFFFFF00000000000000000101010100C2010003000000000000007BC801109F
:200B3C00C5BC0110D9B2011033C20110BDAD0110C1B101106DBA011065BB01101DC0011010
:200B5C00000000000000000000000000000000000000000000000000000000000000000079
:200B7C00FFFFFFFFFFFFFFFF7072696E74665F696565655F6164647200000000FFFFFFFFE1
:200B9C000000000000000000000000003A01000000000000000000000000000099CD000098
:200BBC00952D0100000000000000000101010000C33B3D3A5D3A713AA10A8F3A0F3BB30922
:200BDC00495E850A2F3B853B90240020B82500200B00000004000000FFFFFFFF0016101681
:200BFC000E18151C0212032418580302100258000100000000000000000000000000010066
:200C1C0000000040004002400B00000027000000FF000000C40A0000E0320020EC0A0000CF
:200C3C0041B5011095A6011015B80110010B0101020801020101000000BE040A00BE0208B6
:200C5C0098350020200C0000FF0000000000000089720100113901000F000000B97E0000D3
:200C7C000000000000000000D1C0011061AD01100A00000000250020AB7A0100D55F0100ED
:0C0C9C00877D010079C10000617C01002F
:201000003C000000000000000000000034100000000000000000000001000000000000004F
:1C10200000000000000000000000000001000000000000000800000000000000AB
:20103C003400000000000000000000006810000000000000000000000100000000000000E7
:14105C00010000000000000000000000080000000000000077
:2010700030000000000000000000000098100000040000000000000001000000FFFFFFFF87
:10109000FF00000001000000080000000000000048
:2010A0002C0000000000000000000000C4100000040000000000000001000000FFFFFFFF2F
:0C10C000FFFFFFFF080000000000000020
:2010CC0038140000E410000095A1011091A70110A1C2011009B2011041B80110A5BC011078
:0810EC0085BC01102E0000007C
:2010F400280000000000000000000000141100000000000000000000FFFFFFFF0000000093
:081114000800000000000000CB
:20111C00341400003011000065C2011069C101101BC2011091BA011005BC0110E5BB0110EA
:04113C00300000007F
:20114000341400005411000071C20110A5B6011099BF011045B60110B5BA011025BC01104B
:04116000310000005A
:201164002400000000000000000000008011000000000000000000000000000008000000AE
:041184000000000067
:20118800240000000000000000000000A41100000000000000000000000000000800000066
:0411A8000000000043
:2011AC00240000000000000000000000C8110000000000000100000000000000080000001D
:0411CC00000000001F
:2011D0000000000028260020040000000000000000000000200000007010000030000000BD
:2011F0001C110000302600200400000000000000000000000C0000003013000018000000D1
:20121000401100003826002004000000000000000000000024000000481300001800000054
:20123000000000004026002004000000000000000000000010000000A01000002C00000028
:20125000CC1000004826002004000000000000000000000020000000641100002400000057
:20127000FFFFFFFF50260020040000000000000000000000280000008811000024000000E3
:20129000FFFFFFFF58260020040000000000000000000000580000003C10000034000000C8
:2012B000FFFFFFFF60260020040000000000000000000000100000006013000018000000DD
:2012D000FFFFFFFF682600200400000000000000000000001C000000AC1100002400000053
:2012F000FFFFFFFF7026002004000000000000000000000038000000F410000028000000C4
:20131000FFFFFFFF7826002004000000000000000000000054000000001000003C0000005F
:1813300018000000000000000000000040130000080000000000000032
:1813480018000000000000000000000058130000080000000000000002
:18136000180000000000000000000000701300000800000000000000D2
:08137800020000006C0C0000F3
:041384000100000064
:0413880000000E0053
:04138C0000000F004E
:041390003200000027
:041394000100000054
:041398007425002098
:04139C00000200004B
:0413A0009F7C01002D
:0413A400FDC901106E
:0413A8000000000041
:0413AC00000000003D
:0413B0000800000031
:0413B4000000220013
:0413B80034230020BA
:0413BC00010000002C
:0413C0008C25002058
:0413C400080000001D
:0413C8000000000021
:0413CC00000000001D
:0413D0000000000019
:0413D400080000000D
:0413D8000000000011
:0413DC00000000000D
:0413E0000100000008
:0413E4003024002091
:0413E80006000000FB
:0413EC0001000000FC
:0413F00014220020A3
:0413F40000000000F5
:0413F80000000000F1
:0413FC0000020000EB
:0414000000000000E8
:021406002900BB
:021408000100E1
:02140A002500BB
:02140C003000AE
:02140E003100AB
:021410002E00AC
:021412000100D7
:0114140001D6
:08141800030000003C0C000081
:081420000000000000000000C4
:0414280000000100BF
:04142C0000000300B9
:0414300083C4011060
:041434003C14000064
:041438003C14000060
:04143C0000000000AC
:041440009000000018
:041444009000000014
:0414480000000000A0
:04144C008C250020CB
:0414500039780100E6
:041454002000000074
:041458000C0C000078
:04145C00380B000049
:0414600009C30110AB
:041464007F6801009C
:041468004B780100BC
:04146C0095C801100E
:0414700097C8011008
:041474000000000074
:041478000B0C000059
:04147C00100A000052
:04148000280A000036
:04148400F809000063
:0214880008005A
:02148A00090057
:02148C0001005D
:02148E0000005C
:01149000015A
:041494000000000054
:041498000000000050
:04149C00000000004C
:0414A0000000000048
:0414A4007F7D010047
:0414A80029530100C3
:0414AC00B167010023
:0414B000E1570100FF
:0414B400DF580100FC
:0414B800D94B01000B
:0414BC00FD0A010024
:0414C0006D7A010040
:0414C40045340100AA
:0414C8000DC801103A
:0414CC001DC8011026
:0414D0000800000010
:0414D40024000000F0
:0414D80018000000F8
:0414DC0028000000E4
:0414E00020000000E8
:0414E4003C000000C8
:0414E8000C000000F4
:0414EC0034000000C8
:2014F00083482DE9F04F0C4601210170DFF80892DFF80882DFF808A2DFF808B27D499C464B
:2015100020270023ADF1540D002517EA0C070B70C949119291F83C33C849CDF848C005EA24
:201530000200139108BF00287AD111984FF0E04761462A460F4002EA000008BF002843D157
:20155000129E119B4FF48600B9F8AA10DFF824C3CDF82C9012EA060700EA030008BF0028C7
:2015700019D1C34812EA060700EA030008BF00286ED037464046119E048100F1380341811E
:20159000002F83E8C00004BF331CB3F1806F5FD102295DD111E037464046119E048100F19A
:2015B00038034181002F83E8C00004BF331CB3F5803F4DD1B1F5505F4AD1006A67464369FA
:2015D00038682146984741E046465146B6F9087091F90000BC42A0F10100087017D1728935
:2015F00006F1380003C8002904BFB0F5803FB2F5505F08D0002904BFB0F1806F022A02D0E9
:2016100011F040FD03E012F0F7FE15F0D1FE139890F90020521E02706FF00101318113E092
:2016300046466FF0010006F10801088063B1BE480078832802D0812059460870316919B1FB
:20165000284688472146E9E7CDF82C90B9F8AA10119A129E02202F461040374008BF002872
:2016700000F0D183B24A43F201408842149200F0A383C01C884200F09F83504690F9000047
:2016900052464746401E1070B7F90800844209D0139843F604078F420A9040F09E8315F030
:2016B000A7FA9AE3644890F83CC307F1380090E800034FF482062F4617EA090706EA0800D5
:2016D00008BF002820D113980C4F0A9007F1380003C84FF400322F460F4002EA000208BF91
:2016F000002A02D111F0CEFC77E312F085FE74E3E5250020DC250020981F00206021002019
:20171000E3250020EB3600202846BCF1010F59460E9002D00F78002F7AD1844C8120149EF2
:20173000277808702B46A5816069A770427A017A337002F0070301EB032152098DB234BF98
:20175000291F891EDFF8F081437A8DB233F07F0340F01D8377490988A942C0F218830A300E
:2017700029460FF07BFC216A04F118000522083115F066FEED1EADB20D960520E17E227FE1
:20179000A37E2D4EA081C1F3011B227103EB012096F83C136081002908BFBBF1020F00F0AF
:2017B000F682BBF1020F00F3F28269B110F0070F00F0ED8241B15C490978862904D100F062
:2017D0000701022940F0E382011301F00201022952DA6378DFF8509100F00700022836D117
:2017F0004646D6F804A0002B31D1216A09A801220D3115F025FE0620A081D047804699F834
:2018100000300D48B56847680C96862B18D10FB916F055FA9DF9240016F09DFA9DF924609D
:2018300078770020B8774046FE77A847608900F0100010F0BFFB05E04C080020E22500204D
:201850004046A84713980A9015F034FCA5E299F800000026862808BF01261398CDF830808F
:201870000A9076B1002012F07FFCA77808E0C04600000C8C74230020CDF8308013980A90E4
:2018900063788FB183B9012F00F07E826089022F03D110F0070F40F07782032F05D100F09C
:2018B0000701032901D06FE2608901094FEAE00C09D310F4405F00F06782BA4991F8E07373
:2018D000002F00F06182011301F00201022902DA810A80F05982B2490978C1F381098E11B8
:2018F000B9F1010F00F05082012E00F04D82AB49BBF1020F09D08A5D11F809108918CFB2B9
:2019100006B3C1091ED3BF1E0BE072184944127909798918CFB2C10910D259EA060311D05C
:20193000BF1CFFB20EE0C046EF36002018360020ED360020D62500207020002059EA06030A
:2019500008BF0227C0F30020391A60718D42C0F21B82ED1B5FEA5C010544A8B2208124BF9D
:2019700025210E910E990818743080B215F0F0F865782061002800F00782002174220FF033
:2019900035FF0020E070B4F80A801DB90D9908F02000087000250D9B60790F951D781090D2
:2019B000002D3BD0051C39D108F00708B8F1030F06D0B8F1010F22D17A4890F82A04F0B157
:2019D0007848B0F854000023810809D3754991F8825095B94D681DB16D7E35F07F050CD158
:2019F0005BB98008984605D385498D68887805B1A84710B9B8F1000F01D00420E0706948A6
:201A100090F83C0310B1BBF1020F01DA14F038FE6079B4F80A801090E0780F90216901F13A
:201A300074004860886525890D812089A1F85C005FEA18100FD31098C0F1030082B2A1F837
:201A50005C20886DCF4915F0FBFC2169B1F85C20886D801888655248CA4B0078C0F30112DB
:201A7000109D18780F9BA1F80C8000F07800104318430874FF228A7320790E9005B100208D
:201A900081F8306081F83A9081F84900A089002F2946A0EB010085B2A58100F06A81BA469D
:201AB000216AE780684652464919083115F0C8FC3B487F19BDB2A581216900780A7C6E468E
:201AD000C0F3011B801002F0400910F0030F00F0030744D0BBF1020F4FF0000301D1D00992
:201AF0000BD29DF801209DF8000000EB0220A1F844000DF10206A1F84200C94AB1F84400E3
:201B1000B2F85A20824203D04FF6FF72824223D1032F12D072783078C14B00EB022082B299
:201B30004A86B3F85810B61C0120914213D04FF6FF71914218BF00200DE0C94800683146AD
:201B5000323016F0C8F8C648B54900684F31323015F0BEFA08360346002B00F00D811048B2
:201B70000078831126D02069BBF1020F03D0017CC90903D309E059EA070706D17278317871
:201B9000B61C01EB0221A0F84210032B0CD07178327802EB012202850CE0C046540C0000E4
:201BB000333600204C080020AD4800683146283016F091F808F00708B8F1030F07D0B8F11B
:201BD000010F39D1A84890F82A74002F34D0A6482669876F4FF00008EFB17B7E33F07F039A
:201BF00015D096F8300002280CD003280FD107F1700006F1280115F06BFA40B11CE0C0463C
:201C1000E8250020B7F87000318D884214D057F80C7C002FE1D1B8F1000F0DD1914F594B2A
:201C30004046E07038784246C0F3011118780F9200F07800084330748B4890F83C7317B167
:201C5000BBF1020F0BDA0D98077847B1109830B90E980F9910F074FDA589B4F806A020695D
:201C700081890909C0F08580806D6946524615F0E7FB2169886D50448865276AB1F85C00D2
:201C900001225044A1F85C000DF125007919083115F0D6FB6E1CB5B2A58121699DF8250069
:201CB000896D087021699DF825709DF82530886D401C8865B1F85C00401CA1F85C0007F07D
:201CD000070081F82400C3F3C10781F8257091F8246020898046002E4ED05F497F183E7807
:201CF000361D8642E68047DC216A324605A84919083115F0A5FB38789DF817209DF814100B
:201D10009DF8163040193D78001D01EB026180B201EB0341A0819DF81530206901EB032168
:201D300081616DB14E4800686D1E06A92A461C3015F086FB397820696944C97D80F826103E
:201D5000806D05A9324615F07BFB2169886D80198865B1F85C00A8EB06078019A1F85C00AD
:201D7000781E82B22281B1F85C000A818018A1F85C0000F087FC10E015F0D8FE11F082F90F
:201D90000BE0C0463236002015F0C0FC05E015F0BDFCCDF8308013980A90DDF83080D8F847
:201DB00004008047216A0A680023137109682162D8F80810884710E0404680784146574667
:201DD000401C887097F900005146401E087011F059F914F00DFF13980A9023480B99104F8C
:201DF00000226FF0010690F83C03A1F8AA203E8110B11498007808B915F0DAFA0A9991F9B6
:201E10000000401E0870194890F9000010B9134800210170139A92F9000098B102E0C046D3
:201E300060210020119B129F02214FF0E0401940384008BF002908D092F90000002804DCE6
:201E500015F03DFF002003F07BFC0949002015B00870BDE8F08FC0463C000000DA25002073
:201E700028360020333600204C080020E3250020E52500202DE9F04F8FA0ADF14C0D15F005
:201E900081FC98A015F067F915F090FD9A49022001F11C020023401E42F80C3F1F4697600F
:201EB000F8D18B46B8460BF14000062701467F1E21F80C8BFBD10821914D904F914E01806B
:201ED0002D1D87600BF11C0425F003052B46701BCBF820002A46CBF818501946CBF81C5080
:201EF0002D18954200F2AB8382104FF0E80901EB820242F8048C20F00300C3F80090EC3818
:201F1000C1F8E800E8314046CBF810101DF0AAF9CBF81400D0492068D84DCBF810000A68FC
:201F300005F10C073A6049687960CC493846082214F0CAFBBA4628B9C94801683A46116092
:201F500040685060C748C94FC0F8BC704646C0F8C060C549C0F8B8104246C0F8D020C44DDB
:201F7000C0F8C450C34CC0F8C840C34BC0F8CC30474600F1B806D0F8B810C0F8D47009B172
:201F9000384688471DF0E6F90CF0F8FCD54C39463C2204F128000FF029FC10250820ADF8C7
:201FB00008000227ADF80A70DBF82410039502A8884700280CBF049F474608200125ADF893
:201FD0000800DBF82410ADF80A5002A88847AB499DF80C00049D0A460870556087B1D0218E
:201FF000397087F80180B870454687F80380434687F804803946BD600220FB6013F058F87B
:20201000C44918201DF0E4F8C349182001221DF0DFF8504615F01AFC18201DF0BFFB9749A7
:202030000F46487078688021A060484615F0B8F8E7200A2115F0B4F808F0B0FD04F16400DE
:202050003946B64D8860A7686E624146F520AF6015F0A6F8F820414615F0A2F8B04E0D2070
:202070000E27707006F10C01B77006F118000DF0AFFFB060707815F0A9FA00280CBF082794
:202090004746B07815F0A2FA08B947F01007D349B06815F0FCFCD249C82206F1240012F078
:2020B0001BF9D0487060102F3BD1686A002838D0C268B2B328E0C046CAC7B7F1B4F2D3A1D7
:2020D000B5F7CAD4D0C5CFA2A3A8307830303AB2BBB4F2D3A12F307830313AB4F2D3A1A35D
:2020F000A900C046636F6E666967207072696E7420696E666F0D0A007020002041F9010090
:20211000F0360020004B0020FF208DF820004FF6FF77ADF8227008AEADF8247096E80300D8
:202130009047AAA015F02EFBDFF8BC9209F1140009F108010DF04CFFC9F80400404615F072
:20215000D7FC4746A9F10206824606F8028F02207070384615F03CFD0146D9F804005246A4
:20217000C9B212F0DDFF7F1C022FEEDB9F4909F120004FF4FA7212F0AFF89D4E06F1100015
:20219000311D0DF025FF40F20D313060552014F0FBFFE0200E2115F003F84F20032114F087
:2021B000FFFF5720052114F0FBFF4E20042114F0F7FF5920032114F0F3FF8E4905F12C005D
:2021D000642212F089F8CC49E8604FF47A7205F1E00012F081F8C9492862642205F15000A1
:2021F00012F07AF828614EF6602013F089FB0121201D15F08FF915F0D9FBDFF828A3C84E0A
:202210004FF006095746391DAAF10C0A1191A0884108C0F090806778686A002F40F08680D3
:20223000414600280E913CD00769002F39D08DF82890ADF82A900EA800900AABADF82C80A4
:2022500093E8030042460423B847C8B90E9819300E90686A27E0C046C8FF01007C0B000006
:20227000F0120050180E0020194A0100C14D010049FF0000F95001003DE00000A4250020AB
:202290008DF8289040466B6AADF82A900AAA0F905F69ADF82C8092E803000FAB0422B8476F
:2022B000686A41460E91F8B10769EFB18DF8309002AB00930120ADF832000CAAADF83480D1
:2022D00092E803000E234246B84768B90CF0F7FA11F0BAFFC1B202A810F0C4FC0120207063
:2022F00024E0C0460802002084F800800CF0E7FA012015F0EDF84046C64AC110525C00F0B1
:202310000703012707FA03F111420BD1401C8128F2DB08E0256E010095440000941E00205E
:20233000602200203076032015F018FAC548012115F0E5F8A088810806D308F021FFC1484F
:20235000022115F0DCF8A088C1085CD3C94832220C3830F80C1F4FF6FF738B420BD041892C
:202370004B0808D301F44073B3F5407F03D14FF6FF4319404181521EEBD14FF440704FF438
:20239000807113F035FE002838D1BA4F32200C3F37F80C2F4FF6FF7191422DD079894B08EB
:2023B0002AD311F4407F27D102208DF81000ADF8082002A80AF03EFE00BB78894FF6FF519F
:2023D00040F4807078810840788117E0544920436F6C6C6563746F7200C046C0D951010043
:2023F0001973010069740100F02200208D07010040250020A9700100401EC9D19148042106
:2024100015F07DF8A088000919D38E48082115F076F80A208DF80800B4F86000014615F094
:2024300096FC8DF80900084615F046FC8DF80A0002A811F0B9F942F2107013F061FAB088A1
:20245000410808D33748414615F0D1FB5046012115F055F8B088810808D31198022115F0FA
:20247000C6FB5046022115F04AF8B088010963D3F77FFF1E58D07F1E59D17B4902A80E22F3
:2024900038310DF073FCB068002839D1404601277749B06005ABE1228DF8157018201CF08E
:2024B00097FE502002A915F0C9F9714903AB1820E2221CF08DFE0DF10A01532015F0BEF922
:2024D0006A4918201CF084FE40F6B83041460FF0A7FB41F2941002210FF0A2FBF7681FB168
:2024F000396809B102A88847B07F022814BF0320042014F0EDFF1AE055700100397001002B
:20251000076850B1082107900523ADF8181006A8DBF82410ADF81A3088473846B4E7C046F4
:20253000EC160020FC16002001200FF0C5FA5046082114F0E4FFB088C0080AD341204146ED
:2025500014F016FE484614F0C3FF5046042114F0D6FFA888400805D3A878400902D33AA003
:2025700015F010F92878012819D0012028703AA015F008F94120012114F0FAFD052014F04B
:20259000A7FF3D4815F0C2F9012802D13A4815F0DCFB3A4885F80280012114F0B0FF40460A
:2025B00003210EF0ABFFA08800287FF430AE08200A27ADF808004FF0FF33ADF80A70DBF835
:2025D0002410039302A8884700287FF420AE08200727ADF80800DBF82410ADF80A7002A86C
:2025F00088470028049F9DF80E209DF80C0010977FF40DAE22490978914210D1204949782E
:20261000814209D01E4989684B6C43B141463A46984704E066080000384602F0EBF81098D8
:2026300000283FF4F4AD0820ADF8080003230397DBF82410ADF80A3002A88847E7E542F894
:20265000048B4EE40C0200204B45545F50524553530D0A2000C046C05065726D69744A6F84
:20267000696E2D4F4E2000C020080000616A0100F94501008C170020501F0020981E00206E
:20269000A42500202DE9F04FB64D28692C89296AAE89806DADF1440D22468919083114F0B6
:2026B000CFFE2969886D00198865296A3619B6B201220DF13E008919083114F0C1FE296AD6
:2026D000761CB4B2042204A8AC810919083114F0B7FE9DF813109DF8100000EB01602B69A2
:2026F0009DF81210241D00EB01409DF81110AC8100EB0120049014F0D7FFD863049814F06E
:202710004DFCA3F84000EA2014F018FD022196482C690170217CE878084320749DF93E00AB
:2027300015F019FB84F8460021899DF93E00DFF8F4B284F8480004F17400A065B4F85C0079
:20275000401A61684FF0000AA946401801466060A08984F847A0820A18D2020955D310F07A
:20277000070F07D000F00700032812BF081C6068401C46E06168C87800F00702401000F0B9
:20279000380000EB42004018001D3AE00CB915F096FAA089800A2ED361684878C7112AD1CB
:2027B0002589616650464B780A7803F07F035B0003EBE2137E2B0DD07F2B09D002F07F028A
:2027D00080188918801C891C80B28542EBDC08E0514600E00121801C84F8601080B28542AD
:2027F00001DA504605E06168091861602189091A2181A4F86800606E10B1B4F86800B8B149
:2028100060686061A089000918D294F86000002800F01881204611F09DF8D9F81040E06CFD
:20283000002800F00F81B4F85000002840F00A8115F06AF95046C9F8100036E250465646E8
:20285000059094F82470069005A906AA07AB0796204604F031FC002840F0E780059B6569BC
:2028700060682689291A701A86B20BB915F027FAB4F85C000090019502960698001D0390CE
:202890000598A169A36D3A4615300EF055F8002840F0CB80BB4894F860502689C15D701A28
:2028B000208115B1204611F055F8A58905F00705032D02D160680078E07394F80F8073207A
:2028D00009A913F0D9FC832010A905F0A1FD5146DC460AE0C278012A03D1002F08BFDC20A1
:2028F00028D0001D491C0990C9B29DF84000884240F39A8009988278032D07D00378AB4244
:202910000DD09CF800600EB1022D08D0032DE8D10378032BE5D103465B784345E1D1BB10A7
:20293000B3EBA20F05DA02F0030207F003039A42D0DD504680460598E77B90F814E051466E
:2029500001E0491CC9B28E456ADD06694B00032D06EB03020AD1F35C032BF2D15278BA42CB
:20297000EFD10CE018360020EB3600201278AA4205D09CF80020002AE3D0022DE1D1069891
:20299000077C002F08BFB8F1DC0F4DD0A069B0F1FF3F43D0712008A913F06EFCB5480789C6
:2029B00047B3089D51468446059A95421CD19CF80AE0BEF1000F08BF50460CD00698C26867
:2029D0007346504696888E4205D05B1E02F1080200F10100F6D186451ED0069AD268A36907
:2029F00052F830209A4217D87F1E05F12C0501F10101D9D1C2000698A169C368491CD150E5
:202A1000C0681058B0F1FF3F02D107980121C17084F801A0504609E0DB2007E0DB2004E015
:202A3000DC2002E0880B0020DD206070D9F810406070A0696778606527B1F22014F07EFB23
:202A5000D9F810409B4D95F83C03002800F0AD80A189DFF8648201F00702022A65D199F878
:202A70000170002F61D16778002F5ED1D9F810108DF83FA00DF13600283115F02CF9D9F85A
:202A900010100BA80A22283114F0DAFC414601F11002D9F81070D5F860331088401C108034
:202AB000786E04210DF13F029847444609F1100B28B9686818B19DF83F1080F86810D9F81F
:202AD000107097F83000022812D1DBF8000005F56A710E4602222830203113F0F5FD38B9EB
:202AF00006F116010DF1360015F0F5F8D9F8107072480078862807D1608A401C6082B88920
:202B100000F010000FF056FA95F83C0328B1D5F8841311B1D9F81000884714F0F5FF50464D
:202B3000C9F8100014F0C6FAC1E0654A1778002F30D0C1F3013102292CD16078002840F0A4
:202B5000B4809DF83E005F49464699F803700870B08A04F128021C34002F00F10100B082B2
:202B70000CBF50460820584953460B6000900194B5F8CE33117A0D2004F0B0FB20B913F011
:202B90007FFD03E04000000014F024FA5846D9F81040007848B1D5F8841331B120468847B9
:202BB0002846D9F8104090F83C03A7890A9407F0070760B1A07BFF2873D0032F05D12046D8
:202BD00040680078042802DD6BE0012F69D1381C3AD0401E50D0801E63D1A089C0F301304A
:202BF000022803D16068007807282BD02089002857D0204641684A1C42600F78A446C773A3
:202C10009CF824606EB9002F4BD00A2F49DA2F490089C95D814209D0082F42D1082805D0AD
:202C30003FE0C07B00283CD00A283ADA20460189491E0181C17B0B3101700A99C87B401CAC
:202C5000C8731BE0322018E095F8B5030F280AD014F048FD38B90A988189091301F0020198
:202C7000022900DAD04795F8EB030A9C2074152003E0C046C8250020162020700A9905F1E9
:202C90007C0012F071FD124C6068804795F88410491C85F88410A1688847202014F05EFE3C
:202CB0003DE70AA811F04AFD39E710F0EBF911B0BDE8F08F4C080020BC240020EF36002044
:202CD000ED3600205E210020D423002047000000702000202DE9FE4FDD4981460122A1F1EF
:202CF00030000260D8480768002FFCD0D74AE34EC027D848D84B17603268920808D232462F
:202D100052F8042C03F14104120C42F0F00222704FF0000A8346C1F800A0DFF88CC3DBF8B8
:202D30000810E04F0191880E43D2480E41D3802018744FF6D802A3F8512018703868C0F363
:202D50000464162CA8BF203C1E460F3E307800F01F001628A8BF2038844223D0624602F13D
:202D7000980EE44ACEF800A0251A022D05DC15F1020FB8BF6FF0010500E0022540191568EA
:202D900000F01F05844245F4F855A6F866504FF001051560E8D110682E4616601068CEF85C
:202DB0000050106838460068C0F30420162808DB06E0A7F1D0000068C0F30460162800DB77
:202DD000203800EB2170401C162805DA10F10A0FB8BF6FF0090000E01520D54E00F01F0056
:202DF00040F4F850A3F85900306880083ABFD148C0F800A041F040616246C80E8E0E80F06D
:202E1000010000F00100106086F0010000F00100906001980FF096FD0146182012F01EFB23
:202E3000A7F13806CD4C30683568A4F10408C0F3870105F0030041EA0021D8F80400C04D5D
:202E5000446840F2FF32534688B22C21009028464038A047F06AC0F30D011C2012F0FEFA85
:202E7000B549706A014000F07C400143142012F0F5FA316A01F47C000904090C0143102072
:202E900012F0ECFA7D4AB06A1268C0F30351C0F30344520813D2DBF80020130511EB237104
:202EB00003D41029A8BF0F2100E05146120414EB227403D4102CA8BF0F2400E0544644EAE4
:202ED000011400F47F4200F0FF01B9F1220F42EA044241EA020124BF00F0804001430C20AA
:202EF00012F0BCFA954CB9F1220F32BF01202068C0F30070B9F1220F4FEA400040F02000ED
:202F100085F8090126BF2068C0F3407001208D4EB9F1200F40F0100085F8090138BF514620
:202F300006D33168C80C00F44070C1F384510143282012F093FAB9F1200F26BF3068C0F3EA
:202F500001505046B9F1220F4FEA400040F0600085F80C0126BF2068C0F3C0605046B9F18C
:202F7000220F4FEAC00040F0800085F8010126BF2068C0F345505046B9F1200F4FEA80000B
:202F900040F47C40A5F89C0138BF6F490AD3306801038A15920501F47C1100F00F001143C4
:202FB00041EA0031082012F059FACC3F4FF480002860664AB86D40F21E216FF31F40814208
:202FD00016D93868030E03F00F0113F00F0FC0F3034018BF491E072805D006280EBF0720C3
:202FF000801C00F00F0041EA0011A2F108000170DDF804C0CCF381477F1E02D07F1E31D0B1
:203010002CE02068810C29D24FF480412960D2F80210430AC0F3033703F0800321F08F01CA
:203030000B4347EA0301C2F80210D2F80130060A66F30303C2F80130116800F0E70721F074
:20305000E70147EA01000CE09402224300600C4040100940AC3F0050156208404FF00040A1
:203070002A46106005480068C0F3C0070FB94020A8624FF40070286402E0C046B03F005099
:2030900020684027C0F3C14040F0300085F8C800CCF3815080B3401E08D0FFE7401E23D0A8
:2030B000022122E08813005000002043012012F0EFFE0646042031460FF034FE042012F03F
:2030D000E7FE8642FAD12248066826F07F4012F037FDD8F81400036807214FF06022300E0F
:2030F00098474FF480602860032104200FF01AFE09E0C0462C200940042001210FF012FEFE
:20311000144812F01DFD203C206800F03F0085F8CB0FD8F80030124ED96830680220884793
:2031300010480D4C076001212160BDE8FE8FC0460000094094042A43FCFCFC008C1300505B
:2031500040A00C409813005000803F400A600840A83F0050BD37860094046042A4010010E7
:203170002C20094000600C402DE9F04FADF1840D1A9104461B920DF15F00CF491C9308228A
:2031900014F05EF92046694612F0FEF81D9018B900200146209006E202200027A41CDFF85A
:2031B00020B31E90C54E2097204602A910F0A3FC5FEA000900F0F38120990DF1410016221E
:2031D00014F0CFFD9DF809707F1E00F088807F1E40F0DD81B9F10A0F40F3E481A41C06A878
:2031F0000422214614F02CF9241D07A80222214614F026F942F20B000DF11E0110F084FE8D
:20321000BDF81E00BDF81C10884200F3CB81A41C14F8010B14F8017B14F8015B8DF8410053
:2032300014F8011B8DF842700DF141028DF84350204605F081FBC24909780028044400F003
:20325000B1811D9D012905F1020500F099814FF400500DF1570110F057FE0DF157000DF1B0
:203270005F01082213F030FA40B11A990DF15700082213F029FA002840F0828142F20100AE
:2032900006A905F02FFC42F20B0007A905F02AFC42F205000DF1410105F024FC0DF1420176
:2032B00042F2060005F01EFC0DF1430142F2070005F018FC11A942F2090005F013FC9DF89F
:2032D000440028B1022840F05B8142F2030001E042F20D000DF1450105F004FC50E1B9F11E
:2032F000040F40F35F81A41C14F8010B14F8017B14F8015B8DF8410014F8011B8DF84270AB
:203310000DF141028DF84350204605F015FB0028044400F047811A9808A905F0B1FC9DF817
:203330003E00002840F00E819DF8440000287BD1B6F84E70002F00F00081B6F85200874236
:2033500007D0308B718B884201D108F093FCB06D20E0B76D4FF4005004A910F0D5FD13F056
:2033700037FB4FF6FF78209D1F90AA46B6F84E00A84243DCB06D4FF6FF7141450AD04FEA83
:20339000480707EB88073818808811F05DFAB06D3F1823D1B6F84E300746002B08BF209D0D
:2033B00019D05846209D40681946D846BF1FBF1DFA782AB1491E05F10105F8D1BF1D0AE09B
:2033D0008047B6F85210491CA6F85210D8F808108847B6F84E30AB4200F097801A9809F01F
:2033F00061FCB8800120F870FD788DF83E50B888ADF83F00209B8DF82B30A3E0B88810F095
:203410001BFC0146082204A813F05EF940B1388801041F9814F079FC82453CBF8246A846B0
:203430006D1CBF1DADB2A1E7B6F84C70002F00F08480B6F85000874207D0308B718B884284
:2034500001D108F017FC706D1FE0776D4FF4005004A910F059FD13F0BBFA4FF6FF78209DF8
:203470001F90AA46B6F84C00A84250DC706D4FF6FF71414509D008EB48173818B0F81F0033
:2034900011F0E2F9706D3F1829D1B6F84C300746002B08BF209D20D0DBF80400209D194609
:2034B000D846213F2137BA7F62B1491E05F10105F8D1213711E0C046A0040000E41900209E
:2034D000702000208047B6F85010491CA6F85010D8F808108847B6F84C30AB4215D0209988
:2034F0003846212214F03DFC1A9809F0DBFBA7F81F000123FF2039462122BB770546787213
:2035100008A8FD7213F09CFF1CE0612057E0B7F81F0010F091FB0146082204A813F0D4F8E4
:2035300038B179681F9814F0F0FB82453CBF8246A8466D1C2137ADB294E764203FE0C0462F
:203550004E0800209DF83E000DF14101162240F004008DF83E000AA813F072FF1D9D9DF82E
:203570004400AD1C48B19DF856700DF1450039460FF0E6FF3F1A8DF83D7008A80EF0FAFD04
:203590001E9809EB0007BF1CB8B21E9003E01D9D4C44A41CAD1C1E9885423FF705AE1E98A5
:2035B000022803DC20990A46672004E01D9A911C121A2098921C1B9B19801C990A8021B029
:2035D000BDE8F08F2DE9F04F0D46C64C01686162416880686160ADF12C0DA060284611F039
:2035F0002BFE4FF008094FF0010BADF8089002A8ADF80AB0616A08908847C94E9DF80C10B7
:2036100071700499716108B113F0F6FB28688047A046D8F80400804709904FF40057ADF8ED
:2036300008901E20D8F82410ADF80A0008980397884711F005FDBB4C206C40688047206C57
:20365000C16868468847206C83686A46002001469847E06308B913F0CFFB13F0B9FDB34FBB
:20367000C4F8D470B34AC4F8DC20B349C4F8E010AD4830610025A4F85450AD4BC4F8D83036
:20369000AE4FC4F8E47004F5C472C4F8642104F1C001C4F8681104F1D400C4F86C01A84BCD
:2036B000C4F8E83012F0E6FC04F1EC07C4F87C7104F16803C4F88031A24AC4F8BC20A24975
:2036D000C4F80C1104F14400C4F878019F4FA7609F4BE3609F4AA2619F49E1619F4BB4F8C5
:2036F00054709F4AC4F840339E49C4F8442347F00200C4F848139C4FC4F84C739B4BC4F87C
:2037100050339B4AC4F854239A49C4F8581384F83C53B560984FC4F85C73984BC4F8603330
:20373000974AC4F864239749C4F86813964FC4F86C73A4F85400954BC4F87033944AC4F8F5
:2037500074239449C4F87813934FC4F87C73934BC4F88033924AC4F884239249C4F8881353
:20377000914FC4F88C73914BC4F89033904AC4F894239049C4F898138F4FC4F89C738F4B33
:20379000C4F8A0338E4AC4F8A4238E490D608E4F87F800B002207D8012F04AFEFF21022232
:2037B000F06214F0DEFAF01CFF21022214F0D9FA022012F03DFE854F386008B913F01CFBFE
:2037D00038682946022214F0CCFA07A806A911F053FCF06A9DF81C10421C01709DF81C0093
:2037F000107025709DF81C00B07013F0A1F8B061089FD8F82410ADF808901420ADF80A005B
:20381000384688471523ADF808900398ADF80A30D8F82410F0613846884703986D4FDFF88C
:20383000C0A16D4B3D70801E3062694E1D700AF10E023570108875700E30356180B213F008
:2038500087F9074677610FB914F039FA02978DF80C509DF80D00614965F301008DF80D0003
:203870009DF80D00534665F383008DF80D00D8899DF80D20088065F307128DF80D20ADF81D
:203890000E00706902A94A4613F0DAFD3762756210F0FAFD534E3078012802D0284601F012
:2038B0004FFF51480570514F3D703078012802D0284601F045FFD8F808100998884700F0C1
:2038D00063FA13F065F994F8EB0310F0B9FD584601F036FF0FF0C5F9454805703078012896
:2038F00005D001E070200020284601F029FF0FF023F918203F4FADF808903F4EADF80A0071
:20391000D8F82410039708980496884710B1FFE714F0D5F902F09EFC0BB0BDE8F08FC04606
:20393000A02300204C080020C541010059820000F5300100796D0100FDC90000D1DD0000BD
:20395000D9190100A8020000E9ED0000752F010095400100F57B01002D790100A9FB0000AD
:203970009D670000751E0100195001000977000011E80000ED5C000079310000D30E0100E7
:203990008D800000E9CA00008D750100F58A0000193F010071650100D1CB0000B59E0000B6
:2039B000156A0000B56D0100D1E80000F93401004D650100B5450100A1680100C97101007B
:2039D0008D7C0100CC36002088260020E036002018360020EB360020ED360020582000201D
:2039F000C8250020E5250020EF360020E7360020EC360020BB380100702500202DE9F04FBE
:203A1000064692F808B0307D09AF8846ADF1240D04933528039205D0114606F170000A22BE
:203A300013F00EFDDFF8C8C238F07F0506BF604600884FF6FF700590F08A800934BF002009
:203A500008203076F08AC00834BF102080207076F08A400903D260460E30007800E00020A9
:203A7000B076F08A41082CBF20240024000928BF44F010047568002108F07F08307D069101
:203A90006D1E02280EDB0C2808DC0C2803D1022044F40854069044F0030404E00D280CBFED
:203AB00002200120044396F88C0008B144F00804E110220900D328B1DFF8BC9299F8E033C8
:203AD00013B908B1DF204CE149086ED306F12401DFF8A8A296F88D50079100EB0A011AF84B
:203AF00005300A7999183389491DCAB29918A44B1A8808908A42C0F2368100284CD0049ABE
:203B1000039906F184000AF0C3FB0799002808603FD0806AB0F1FF3F39D070680023401E5C
:203B30008DB196F88E10524600F80119515D491EC9B241B18A1992F88320491EC9B2002904
:203B500000F80129F6D1079970660968896AB162090E00F8011996F82A1000F8011996F8EE
:203B70002910089A00F8011996F8281005F0030500F8011902F0070141EAC501017071683E
:203B90003589091ACAB27060A918318105E0DB2700E0F3277770E7E00023F08A7370C0089E
:203BB00028BF44F0100475686D1E336DA3B9B36D93B999F8F913012903D13089B0F5EE7F90
:203BD00006DA200904D202290AD144F4005401E044F48054012002E044F408540220069028
:203BF00099F8020001280CD099F83C0348B196F86B00042805D1022024F48054069044F47D
:203C1000005444EA8834B8F1020FA4B20AD0B8F1030F10D1ED1F09F57B71284614F05BF815
:203C30006D1E08E0B9F8D203001205F8010999F8D20305F80109069802280CD0B8F1000F99
:203C500015D0BBF1000F0CD004990598814208D144F040040BE0BBF1000F08D1B8F1000F53
:203C700005D00599081205F8010905F8011944EA8B24BBF1020FA4B209D0BBF1030F0ED123
:203C90000399ED1F284614F026F86D1E07E003990888001205F80109087805F80109BBF1F2
:203CB000000F05D00498011205F8011905F801093878F8B933480178307D0D2814D068B907
:203CD000306D28B999F8BC03411C89F8BC130AE099F8E103411C89F8E11304E099F8CA03E6
:203CF000411C89F8CA13014605F8011904E0C0461A0C002044F48074201205F801092C706A
:203D100070683789401BC1B2756078183081200926D3B06D00B1306299F83C0310B1307D57
:203D30000D281DD1746A14F1150001D113F0C7FFA16A481CA0623289306AB162471B0092F0
:203D5000D21B019090B20290706A96F88C202B4615300AF003FB00281CBF7070071C07D161
:203D70000020707005E0E5277770F32013F0E6F9F8B209B0BDE8F08F4C0800203C0000002F
:203D9000D62500201C3600202DE9F04FD54D286A416EADF11C0D02A888474FF00009D24F25
:203DB000CDF80890B8688DF80C90002833D111F0AFFEB8B111F0ACFE012813D011F0A8FEB4
:203DD00005280FD011F0A4FE0C280BD011F0A0FE0D2807D011F09CFE0B2803D011F098FE32
:203DF0000E280BD111F094FE787000280CBF48460120B870286A00F1200408B913F05FFF93
:203E1000216807F1180088474FF4FA703885B74EFE6206243C63DFF8D882EA6998F8FB4340
:203E30004FF0010A4946080100EB41108018867F2EB9437F491C9C42C9B2F4D102E0417FE9
:203E5000A14204D1824202D011F0F6F9EA69DFF8A4B2686A1BC88BE81B0097F90100012897
:203E700005D00D2803D00E2818BF484600D105208BF8000098F8291450699F4C50F8210067
:203E9000C4F89C0013F098F8632005A910F0ACFB98F8FB0311F0E6FB064694F88E006AF31C
:203EB000020084F88E0010F04FFE042825D010F04BFE032811D094F8900040F00F0084F84C
:203ED000900094F8970069F3030084F89700B07B052814BF2420292016E094F8900040F0B3
:203EF0000F0084F89000292384F8943094F8970069F3030084F8970008E094F8900040F042
:203F10000F0084F89000212084F8940094F8950069F3871084F8950010F016FE042818D0D8
:203F3000B37A7BB99DF8140094F89510401E60F3050184F8951094F8960020F03F0040F0BD
:203F5000180014E09DF8141094F8950061F3050005E094F8950020F03F0040F0020084F80F
:203F7000950094F8960020F03F0040F0200084F89600B189B07BB4F88E200A23401D4843F5
:203F900090FBF3F161F3CF02A4F88E20B08994F890201923800390FBF3F102F00F00D4F8C3
:203FB00090200F23484390FBF3F161F31C22C4F89020E86994F89820017F61F3020284F82E
:203FD000982094F89810007FC01060F3C30184F8981098F9EA0310F02FF8B0F1FF3F05D002
:203FF000010828BF4FF6FF70A4F89A00308971683368EA69401E414303EB51004FF47A7108
:20401000B0FBF1F0A4F8A00090690078A4F88290C4F8849094F88D3084F8A4006AF303030D
:2040300084F88D3013F076FDC8B9B089334A98F8FB63B1FBF0F0C0B21070B1FBF0F0304919
:20405000022E487006D010F07FFD032807D105225C2001E00222A8202A4B1A700870BB6809
:204070002E6A5BB3484610F047FBF87898F8FB13884212D13A7998F829142E6AB8688A42FB
:204090000DD102214A468DE80600366D80344B4602AA2146B047EC601BE02E6AB86871683A
:2040B000884719482B6A80F800A01E68174880345946224607F11803B04707E08034224666
:2040D0001248346807F118035946A047B860686AA86298F8FB0398F82964F87007B03E71D4
:2040F000BDE8F08F602100206C230020832101004C080020B0360020981F00205C250020A5
:204110005C210020BC240020E6250020083400202DE9F843DFF828830F460446F80B80F086
:204130007481DFF81893B80F80F02D81C54DB80880F02281F80A80F00081B80B80F0EE809A
:20415000780B80F0C080380C80F0AF803809C0F07F81082013F0B4FC002840F0A180802054
:2041700013F0AEFC002840F09B8068460BF07CFF012803D10098002800F0928000240125E2
:20419000E0B213F05FFA48B1867A3EB1857290F9090005FA00F0C0B211F0E2F9641C032CC4
:2041B000EED34C46032020756068783013F0A7FDAB48002601680660AA4950F8082CB1467F
:2041D000324640F8089C04F1380013F0A8FD304612F04EFC13F0F0F90146A268E069891ABB
:2041F000090BC1F1FF3282422CBF08444FF0FF30E06194F820601EB12169B0EBC12F1FD926
:2042100012F096FC494600B12946081C14D0964840F60901018049464180427B65F303023A
:204230004273027B61F303020273416013F056FB418811F4406FFBD084F820504946E16174
:2042500010F098FD89484D4649460560022012F0CFF9022011F06AF911200AF0EDFB207844
:2042700018B96068403013F062FD8148007810B90E200AF0E1FB94F8210020B184F821504A
:20429000052011F053F97B48B4F98C60A061B4F98E1025758E4214BF022007200CF0AAFFC9
:2042B00027F008070EF09EFDD2E00835296839B1C86840880028FBD0C86840880128F7D0F2
:2042D00027F40047EEE710F047FF38B12046A4696FF4807100224FF00073A04768494C46A3
:2042F000002204F1380013F01AFD0220E668207513F062F9D4F81C21636804F58E719A423A
:2043100014BF0122002226B1801B01EB8206030BB360002027F48057E060C3E7404606687E
:2043300046B1B06830B13069B6F93410B46800222023A04727F400578AE013F0EAFC4C4632
:204350000546206F064688B1606810B1783013F0D6FC3069606013F02FF9E06046484FF453
:204370000061A06104F1B40013F0E9FC284613F0C3FD27F480676BE006F092F9286808B9EA
:2043900027F0020764E013F0C4FC0546042011F07FFDC8B1207CB8B148460830006898B105
:2043B000064613F009F9E168801BE060000B8842E06002D240184008E06040F6C4118142E1
:2043D0002CBFB0F5967FE160284613F095FD10F0C3FE80B1A56920466FF4807100224FF0C9
:2043F0000073A84725480068002808BF47F0020701D00EF0F7FC2046646900214FF080630F
:204410000A46A04727F0005722E013F082FC41460E68CEB1B16A890816D2B56AB16AA9432E
:20443000B16213F069FDB06880B17DB13069B6F93410B4682A460023A04707E0602D0020C3
:20445000E82D0020D82D002013F056FD27F4804727B1404639462C3013F071FCBDE8F883F1
:2044700014100440313301008836002000000460F625002025D10000B9B20000D02D002064
:2044900089E600002DE9F04FC34C07466068ADF1140D80470025DFF804830390002F88F8D9
:2044B000035000F0C68011F0E5FD08F52A702946402213F056FCBA4C04F1080001882C27E4
:2044D00007FB01F080B211F0B3FFC8F8CC02002800F05D81E17A20894843410001EBC001F3
:2044F00088B211F0A5FF0028C8F8D00200F04F81E18820894843800080B211F099FF002843
:20451000C8F8D40200F043812089800080B211F08FFF0028C8F8D80200F03981208980B111
:204530002A46D8F8CC1289180D75D8F8CC1289180D71D8F8CC12401E114402F12C028D81CD
:20455000EFD1A188880000EB011080B211F070FF0028C8F8DC0200F01A814FF6FF7AA9463E
:20457000AB4615E0A77A7FB12946D8F8DC028019C368CA0042F803B0C0687F1E01F10101A3
:204590001044A0F804A0F0D109F101001FFA80F9A088484500F3EA809548FF210822C01D17
:2045B00013F0DFFB9248FF21082288F8B712103013F0D7FB032688F8C8622789A8F8CAA2FD
:2045D000C7B14FF0010C04232A46D8F8D802910001F800C0D8F8D80240184370D8F8D8021D
:2045F00040188670D8F8D8027F1E02F101020844C370EAD17E480121042305220227343023
:2046100000F8041F437082707F1EC170F8D1784880F83C60A08848B12946D8F8DC22401EA3
:204630000A4401F11401A2F802A0F6D1022088F8AC0298F83C0318B1D8F8400300B180479F
:204650000EF07AFA98F9EA0313F0D3F811F028FD13F034F812F0A0FE12F092FE514E07243B
:2046700056F8040B00B18047641EF9D112F0C4FE444604F14C00016809B110F05FF84A486E
:20469000006884F8565020B10CF070FD0028009068D146480078012802D0284601F050F8AD
:2046B000434804F178060570A06F002852D1361DE06F002846D1A5673E48C4F88801E56719
:2046D0003D4FC4F88C7184F882503C4EC4F8906184F883503A4BC4F89431A570394AC4F857
:2046F000982184F884503849C4F89C113B49C4F8C010364FC4F8A071394FC4F8C470344E5B
:20471000C4F8A461374E334BC4F8C8602249C4F8A831354B304AC4F8CC308968C4F8AC21B5
:20473000324A0398C4F8D020884704F2D131522004F09AFE94F8EB030FF046FB0EF0FCF934
:20475000284626E0304610F0AFFD029002A80FF0F5FFADE7304610F0A7FD019001A80FF09D
:20477000EDFFA1E768460FF0E9FF8DE7A37AD8F8DC724846860006EB0016D80011F058FE27
:20479000F119F319C860D86800287FF4EBAE13F096FA05B0BDE8F08F702000204C080020C7
:2047B000C825002054090020E0360020E5250020EA360020D3320100D57C0100C96301003A
:2047D000998700005DD60000816B010041560100DDB30000519D0000415C010013210100A0
:2047F00069A50000352301007103010035300100F40A0020B0B50446BA480768ADF1480D36
:20481000002F00F0A8812078401E112800F2A381DFE810F06A015201380123011B010401F8
:20483000F100E300C300B2008D005D0053004200A1012A001C001200F86B002800F08B811F
:20485000684621460CF0E0F9F96B82E1386C002800F081816846002101220CF0C7FF60784D
:204870008DF80000396C74E1F86A002800F07381684600210E220CF0B9FFA11C684612F01B
:204890005BFDA57BA1890022ADF80A1005B101228DF80C20F96A5DE1B86B002800F05B8143
:2048B0006846002102220CF0A1FFA5788DF8015060788DF80000B96B4BE1786B002800F0BE
:2048D0004A81684621460CF09FF9796B41E1386B08B36846002114220CF088FFA5788DF8C6
:2048F0000150A3680193A289ADF80820A17B8DF80A1060788DF80000E57B8DF80B50237CC9
:204910008DF80C3094F911208DF80D2061690491396B684688476068002800F01C81014612
:20493000F22008700020487010F0C2FB13E1B86A002800F010816846002124220CF056FF23
:204950006078A11C8DF800000DF1020012F0F4FC04F10C0103A812F0EFFC257EE08A04F19F
:2049700019018DF818500B22ADF816000DF119000BF0FCF9B96AECE0786A002800F0EB80DD
:204990006846002102220CF031FFA5788DF8015060788DF80000796ADBE0386A002800F040
:2049B000DA806846002112220CF020FF658862796078ADF8025023798DF80520E11D8DF80F
:2049D0000000A5798DF804300B220DF107008DF806500BF0CBF9396ABBE0F869002800F06D
:2049F000BA806846002101220CF000FF60788DF80000F969ADE0B86910B120460EF0FEFFF1
:204A1000A07820B9A069002800F0A58003E0A069002800F0A08011F07BFF9CE0786900282B
:204A300000F099806846002113220CF0DFFE6D46A01C0168406829600B22686004F10A0182
:204A500002A80BF093F9796983E03869002800F0828020460AF0D6FB7DE0F86800287AD0B5
:204A7000684600210E220CF0C1FE6078A11C8DF800000DF1020012F05FFCA089ADF80C001B
:204A9000F96866E0B868002865D06846002114220CF0ACFEA01C01686D4629604068686066
:204AB000A07A0B2204F10B018DF808000DF109000BF05CF9B9684CE0786800284BD068469C
:204AD000002110220CF092FE60786588211D8DF800000B22ADF8025001A80BF047F9796876
:204AF00037E0C046AC2500203868A0B36846002119220CF07BFEA01C01686D46296040681D
:204B10006860A07A410824BF01218DF80810810824BF01218DF80910C10824BF01218DF839
:204B30000A10010924BF01218DF80B10C10924BF01218DF80C1030F07F001CBF01208DF80C
:204B50000D000B220DF10E0004F10B010BF00EF939686846884712B0B0BD7047BA482DE9E0
:204B7000F84F0025B94CB749056094F8E200002800F06381012800F02F81B54E02283CD0E3
:204B9000032840F05A8151F8250CD4F8B8100029A0F5C060C4F8D400B8BF49420028B8BFB2
:204BB0004042814226DA4FF08057D7F8A4014568B4F8BC0030214FF47F420823009030467B
:204BD000A847D7F8A4014568B4F8C00004214FF4F802122300903046A847D7F8A401B4F89D
:204BF000D070456820214FF440620A2330460097A847012584F8D8501AE151F8258C12F0A8
:204C100034FF2F4600B901273946924F38680028FCD0B146012609F10409D9F82CA03E60A7
:204C300009B112F028FFCAF30720C4F8BC0012F01CFFAA4600B9B2463B68002BFCD0D9F8FC
:204C500000B0BAF1000F3E6001D012F014FFCBF38440C4F8C00012F008FFAA4600B9B246AE
:204C70003B68002BFCD0D9F81C90BAF1000F3E6001D012F000FFC9F38120C4F8D000B8F54D
:204C9000C061C4F8B81000F09C8094F8D80068B9C4F8D410D4F8C000C4F8C800D4F8BC7026
:204CB000C4F8C470D4F8D030C4F8CC30D4F8D400D4F8BC30002854BF02226FF0010204F162
:204CD000C8010F6800EB40008018421000EB927207EBA2000860D4F8C810C4F8C430002907
:204CF0001CDD1E293CDDD4F8CC0030B93429B4BF15391E21C4F8C81025E02A29BABFD4F83C
:204D1000C8000B381E20C4F8C800D4F8C4003F28B4BF401C3F20C4F8C4001FE0D4F8CC007A
:204D3000032812D011F10B0FC6BFD4F8C8000B30301CC4F8C800D4F8C4000028C4BF401E7D
:204D5000051CC4F8C450032508E011F1150FC6BFD4F8C8001530301CC4F8C800C4F8CC5016
:204D70004FF08057D7F8A401B4F8C43030214FF47F424568364800930823A847D7F8A40158
:204D900004214FF400321123456831480096A847B4F8C860D7F8A40104214FF4F8021223AB
:204DB00045682B480096A847D7F8A40120214FF440620A23B4F8CC60456825480096A84700
:204DD00001E084F8D85040F2FF50404502D8801C40452DD208202EE051F8251C1E4F4BF2D4
:204DF000F5204843060A3868C0F3814001280AD111F056FA0FF0A0FF12F043FE3111C01097
:204E1000484306EBE03694F8E50030B91348006820F07F403618760801E084F8E55010484E
:204E3000310C0660012741600E4D8760287808B90B2000E0052084F8E40004F04DFABDE8E3
:204E5000F88FC0462D400C402C500C40801D002000A00C4000800C40B43F00501020094003
:204E70003C600C40C90B00002DE9F04F09AFADF13C0D08900A92388809911E46ADF81800C3
:204E9000101C08BF002000F06C81017800274FF0010B401C4FF0FF39B846DA460A9058E163
:204EB000252940F04D810178401C0A902D2918BFADF8068004D10178ADF806B0401C0A9030
:204ED00030291CBF4246434604D10178401C5A465B460A902A29CDF800804D4617D104934E
:204EF00030680A9BCDF80890C01C20F00300001D306050F8044C1978002C009403F101008E
:204F10000A9018D5ADF806A06442009413E044460AE0600000EBC4004018A0F130040A9840
:204F300001780094401C0A90302901DB3A29F0DBCDF8089004932E2929D10178401C2A298E
:204F50000A9011D13168CDF80880C91C21F00301091D316051F8045C002D48BF454601784D
:204F70002B46401C0A9011E0454643460AE0680000EBC5004018A0F130050A9801782B4609
:204F9000401C0A90302901DB3A29F0DB02930AB1224604926C2904D04C2918BFADF804807C
:204FB00004D10178ADF804A0401C0A900BA8CDF80C800FAB07906429059379D0692977D0B8
:204FD000BDF818C0752965D0782961D06F295DD0702946D0632936D073291AD00A98401E03
:204FF0000A900998012812D961490C68B5F1FF3F03D0A84288BF6D1C00D8099D029508A8FE
:205010000AA932466B46A0473F18039865E0454617E03068C01C20F00300001D306050F888
:20503000040CBCF1010F014608B94FA00146079112F08AFB0390B5F1FF3F4FD0A8424DD990
:20505000039528464AE03068C01C20F00300001D306010F8040C8DF82C005D46039558463A
:205070003CE0082035680490E81C20F00300001D306050F8041C082210230FA80DF042F834
:20509000401E079040210170079823E0082302E0102300E00A233068C01C20F00300001DA6
:2050B000306050F8041CAA42BCBF2A1C04920DE03068C01C20F00300001D306050F8041C1C
:2050D000AA42BCBF2A1C04926FF009030FA80DF019F807900599081A0390009C241ABDF8D4
:2050F000065000945DB906E008A8202109AA11F086F87F1C009C641E0094F5D50398401E87
:20511000B0F1FF3F03900FD1BDF8060001281CD10098401E009018D408A8202109AA11F045
:205130006EF800987F1CF4E70798017809AA08A811F065F80798401C079003987F1CDEE785
:2051500008A809AA11F05BF87F1C0A980178401C0A9000297FF4A4AE089808B1414601709D
:2051700038460FB0BDE8F08F286E756C6C2900C0A00C0000B0B50546EC6B00215022ADF10E
:20519000600D04A80CF032FB14F8010B8DF8100021680DF1110001606168083441602078D9
:2051B000617812F041FDA41CADF81A0041080FD32078617812F038FDA41CADF81C0020785B
:2051D000617812F031FDADF81E00BDF81A00A41C810808D32078617812F026FDADF82000A5
:2051F000BDF81A00A41CC1080FD32078617812F01BFDA41CADF822002078617812F014FDCF
:20521000ADF82400BDF81A00A41C0109C0F0AA802078617812F008FDA41CADF826002078A7
:20523000617812F001FDA71CADF828003878797812F0FAFCBB1CADF82A001878597812F053
:20525000F3FC9A1CADF82C001078517812F0ECFC971CADF82E003878797812F0E5FCBC1CAB
:20527000ADF830002078617812F0DEFCA41CADF832006178207812F0D7FCA71CADF8340083
:205290003878797812F0D0FCBB1CADF836001878597812F0C9FC9A1CADF8380010785178D1
:2052B00012F0C2FC971CADF83A003878797812F0BBFCBB1CADF83C001878597812F0B4FC67
:2052D0009A1CADF83E001078517812F0ADFC971CADF840003878797812F0A6FCBC1CADF8CF
:2052F00042002078617812F09FFCA41CADF844006178207812F098FCA71CADF84600387840
:20531000797812F091FCBB1CADF848001878597812F08AFC9A1CADF84A001078517812F058
:2053300083FC971CADF84C003878797812F07CFCBB1CADF84E001878597812F075FC9A1CCB
:20535000ADF850001078517812F06EFC971CADF852003878797812F067FCADF85400BDF82D
:205370001A00BC1C40090ED320786178A278E37812F066FB241D16906178A2782078E378EB
:2053900012F05EFB1790354800F140021168BDF82C70491C1160298800EB8103D3F8783117
:2053B00000F5BC72BB4200D1DFB98B00D750C018BDF84E40D0F8AC20521CC0F8AC20BDF84C
:2053D00050700094BDF840400197BDF82C30029495F92000521E039004A011F0BCFE12F0E3
:2053F000E5FA28460DF0DEFE18B0B0BD2073656E736F722030782564202072656365697679
:2054100065643D202564202C73656E74203D2025642C6E756D42726F6164636173744D73F2
:2054300067526376643D25642C6E756D42726F6164636173744D73676C6F73743D25642CB6
:205450002073796E634C6F73733D2025642C72737369203D2025640D0A00C046080200209E
:205470002DE9F04FA74E824606F120000068416EADF12C0D03A88847B04F381D0468002C9F
:2054900000F03881002061689D4A0790238909781078DD001035890906D340F6485191FB4F
:2054B000F0F16D1805F5AF75237D68438500352B0CBF00244FF4FA540DF12601E8200FF07C
:2054D00093F89DF82600032808BF44F620642D193C466068007D352803D1D4F8A003804752
:2054F00045430220B3468DF82000894FDBF82000069507F10803826E186806A990474FF0B6
:20551000000801208049814D087029788BF80080012901D000F014F960680589466811F0A2
:2055300047FB3088000935D394F83C0390B361684B6A4F6E986AB0F1FF3F25D027B3421CF9
:205550009A628862030E07F80139606890F82A0007F80109606890F8290007F8010960683E
:2055700090F8280038706268106A00950190801B281A80B20290916A506A92F88C20334654
:20559000153008F0EBFE00E0DB20D4F88073002840F0A680294630460BF060FD642009A94A
:2055B0000FF022F85B4894F83C13007831B994F8EB0309F0C3F8012805D08DE009F0BEF89A
:2055D000012840F08980DFF85091A81C87B20DF1250109F170000780E9200FF005F89DF8F5
:2055F0002500012805D13D46C5F3022040F0180005E02D1DADB2C5F3022040F0080006F834
:20561000010D06F8015D4D469DF82400A5F862800028EE670CBF41484148434603930222A8
:205630008DF8102005F12806A6F8028005F16009C5F8B8003B4FC9F8180095F8350020F058
:205650000F0040F0030085F8350078688047DFF8D8800A90BAF1010F1DD0BAF1040F1AD086
:20567000BAF1000F14D0BAF1050F0ED0BAF1030F08D194F8FB030FF0F5FFC07B022818BF90
:205690004E460AE005F1600607E0DFF8A08004E005F1440601E005F12806DBF820001C4BBF
:2056B000046D002102208DE80300986803AA31464346A0471E490880B96800280AD41D4A9D
:2056D00092F900006035401C10700A98CBF80C50884711E00A9888471A200BF0CFFE0BE0DF
:2056F000002F08BFE420F8D0134880F80080E420B84701E012F0E3FA0BB0BDE8F08FC046DD
:205710005C25002060210020DB250020E52500206C2300205F210020981F00204E9055553F
:205730000E7A555570200020C9A20000B9D90000D0230020E2250020EF3600204C08002087
:205750002DE9F04F9F4C06466068ADF11C0D8047A44D012E069000F0DA8011F035FE0028FB
:2057700000F0D08098480078A0B99848007888B99748007870B99748007858B99648007851
:2057900040B99648007828B995480078002808BF012000D00020296A002801F13C0100F09A
:2057B000B180914E0868347880477168A300401AB0FBF3F7F168B0688D4E4FF00008C246E0
:2057D000AB46524689464F4572EB0A0201DA884207D80246434651469742994141DA114653
:2057F00000E043460A46D21B73EB0803104619462246E31711F03CFE272507464FF47A7270
:2058100000238846ADF80A500820ADF8080038460CF040FC6B49496A039002A888470498EE
:2058300053464FF0000100F6FC02BF1A78EB0308784271EB080112DA6C4802684146384616
:205850000CF028FC884607464FF00001784271EB080104DA38460FF077F8002000E00120B3
:205870003070307800284DD1002738460CF0E8F800B10127B246384600284FF000073FD13C
:205890005C4D287800283BD1DBF820005A4C436CA068022102AA98479DF8080080B3DFF8D6
:2058B0005C81DBF82020A06898F900103E4611F1020F18BF01264FF0010936B1926B98F9EC
:2058D00000109047DBF82020A0684D4E96F9001011F1020F03D0926B96F9001090476FF0C4
:2058F0000100307088F8000085F80090384612F01DF8DBF82000C169A06888478BF80170ED
:205910008AF800702F4906988968884757E001200CF096F82146069889688847354CDFF8B0
:20593000F0A02078012838D1012011F0FFFF10F083FE58BB23484068804700260227834657
:20595000DFF8C090286AA9F80260416E277002A8884702968DF80C70286A2E4A2A4BD0F8DC
:2059700050C0B0468DE880011068494602AAE04714498968002819D4244A4F4692F9000050
:20599000EF60401C10705846884706E02078012803D10020207011F023FD10F04DFE70B99F
:2059B0002078022804D15046007808B112F087F950460078012802D020780228FCD007B0A9
:2059D000BDE8F08F70200020EB360020ED360020EF360020EC360020DA250020DB25002099
:2059F000DC250020602100205C250020BC230020EE360020E62500206C230020D8250020FA
:205A1000D9250020981F0020E1400100E2250020E5250020742300202DE9F04FAC4C0746BD
:205A30000020ADF13C0DDFF8A482ADF80C00201D00688946017D252900F00281703005A9A0
:205A500003F01EF9002818BFC0B240F03B8101A804A90CF01FF90FF077F8042814BF41F2C5
:205A7000081543F2C82504A901A80CF013F998F82B2201993B684FF47A7A504650430AFBFA
:205A90001100C01A8542C0F2D880D8F80422521A0AFB02F1C91A8D4200F3CF808542A3463C
:205AB00009DD002807DD95FBFAF04FF4916100B201FB003038609DF81F00002857D042F288
:205AD00004000DF136010EF01FFA10F061FF0699441A42F206000DF135010EF015FA9DF8F9
:205AF00035009DF81D10FF2804BF0A208DF83500FF2908BF0A219DF835609DF81C507548CF
:205B1000B4FBF0F2701884B25646A81054437043A04298BF041C41F20810241805A810F0FB
:205B3000C2FC9DF81C103D68B0FBF1F24A43821A714392B272438B1A891A5B1B491B8C42DD
:205B500001D9002908D56142994212D2002B10D5B4FBF6F109B203E06100B1FBF6F189B280
:205B70003A684FF4916303FB01253D6001E03D68002006460DF1120102A80CF08BF80298B5
:205B9000D8F804120024B5FBFAF280180290814203D998F82B32834202D998F898712FBB76
:205BB0009DF81C00B6180004B04298BF361A9DF81F00002808BF9DF8200024D09DF81C00BC
:205BD000B6FBF0F085B2BDF833000EF035F89DF83120014628460EF09FFC054610F050FC0F
:205BF000024608A928460EF067F90CE0814204D8BDF81200401CADF81200BDF8120098F814
:205C10009B110CF067F989F8000088F8F501DBF80400007D052811D19BF8D10370B999F8F1
:205C3000000003A9ADF80C0042F20C0002F05AFFBDF80C00A8F8F00100E06524204641E02A
:205C50000EF082FF042814BF41F2081543F2C825214800784FF47A7404FB00F13868491B3E
:205C7000A1F5FA62824206D2A1F57A61B0FBF1F24A43801A386068460DF10E010CF00AF80F
:205C90003868009998F82B2204FB010154430091611A8D4211DCA4F5FA648C42BCBF00F549
:205CB000FA60386098F89B11B8F878010CF012F90146002089F8001002E099F80010652076
:205CD00088F8F5110FB0BDE8F08FC046E41900204C080020A08601000F1C00202DE9F04FED
:205CF00000289A461446ADF1340D00F0F48011F47C1F40F0ED8011F00F0F00F0EC800746EA
:205D10000591002006900B900A904FF0000909904D4608954FF0010BCDF810B00546484638
:205D30000790059805990BEA000021EA0B014FEA4B0B401E059100F0AB80401E70D0801E9B
:205D50005DD0001F40F0BE8042F205000DF10E010EF0DAF89DF80E60002E00F0B3801CB142
:205D7000276694F86B0006900720152607F8010B022301A907F8016B42F2010007F8013BE2
:205D90000EF0C2F8684603A90BF084FF06980CF099FF0146019A00983E4640180090824287
:205DB00006D8801ABDF80C300090581CADF80C00009B50084946804609041804030C1943D9
:205DD00000044B4610EB080041EB09010AF0ACFB0090BDF80C309DF80C009DF800209DF8D8
:205DF000011006F8010B181206F8010B9DF8023006F8012B9DF803200935BF1D42E002203D
:205E1000152607F8010B042307F8016BBAF1000F07F8013B0CBF09989AF800002D1D4EE02F
:205E30001CB1E76594F86B00069005201526049B07F8010B0DF10F0107F8016B42F20400F1
:205E500007F8013B0EF060F802A80EF01DFD06980CF038FF02999DF80F609DF80F30069AFB
:205E7000ED1D4018000200EB6600B0FBF3F03E4602903F1D06F8012B9DF808109DF80930B8
:205E90009DF80A2006F8011B06F8013B327018E00320152607F8010BBAF1000F07F8016BB7
:205EB000034607F8013B04BF0B9807F8010B05D09AF8000007F8010B9AF801006D1D07F84F
:205ED000010BADB2059800287FF42BAF2E4661E011F00F0F01D000205DE080468A46022675
:205EF0004FF4803908F1020509EA0A002AEA090A4FEA4909B0F580301AD0B0F5803014D06F
:205F1000B0F500300ED0B0F5802009D0B0F5002004D0B0F580102AD1072404E0062402E0BC
:205F3000052400E00424002704E00224012701E001242746A81C214600F030F847B104F025
:205F50000F04C0F30A0141EAC42141F4004105E004F07F0400F0FF0141EA042105F8011B25
:205F70000912871929702D18B81C6D1C86B2BAF1000FB9D1022ED8BF00260BDDB01E4FF6B7
:205F9000FE7708F8010BF019C0F3022040F0A00088F8000030460DB0BDE8F08FF0B50446FC
:205FB0000846ADF16C0D401E70D0401E0DD0801E00F00981401E00F0EF80401E00F0E1800F
:205FD000401E00F0AD80002042E142F2010007A90DF09AFF42F20B0008A90DF095FF42F2C3
:205FF00006000DF165010DF08FFF42F207000DF166010DF089FF42F2050019A90DF084FFFC
:2060100004A809F0E9FB06460DF1670142F209000DF07AFF9DF86700002808BF002503D09F
:2060300002200FF01FFF0546204607A9042211F007FA241D08A90222204611F001FAA71C4D
:206050009DF864009DF865309DF866109DF8674007F8010B9DF8672007F8013B2B4607F8F4
:20607000011B610706F0070444EA916005F0030404AD40EA8410314607F8010B01240095C5
:206090003846019405F0F4FF0A309AE042F206000DF165010DF038FF42F207000DF16601CF
:2060B0000DF032FF42F2040019A90DF02DFF04A809F092FB05460DF1670142F208000DF063
:2060D00023FF9DF86700002808BF002303D001200FF0C8FE03469DF864009DF8657004F81F
:2060F000010B9DF8666004F8017B9DF867209DF86770790704F8016B03F0030705F0070642
:2061100046EA916004AE40EA8710294604F8010B002700962046019705F0AAFF001D50E0BE
:2061300042F2150011A90DF0EFFE13AF42F2160039460DF0E9FE15AD42F2170029460DF07A
:20615000E3FE17AE42F2180031460DF0DDFE204611A9082211F074F90834082220463946EB
:2061700011F06EF904F1080708223846294611F067F9082207F10800314611F061F92020EF
:2061900066E042F214000DF122010DF0BDFEBDF8221002200A1258E009A80021202211F016
:2061B000E0FD42F2130009A90DF0AEFE09A811F0DAFD024609A9204611F042F909A811F079
:2061D000D2FD80B244E042F20E0002A90DF09CFE0DF10A0142F20F000DF096FE0DF10B011F
:2061F00042F20A000DF090FE03A942F210000DF08BFE0DF10D0142F211000DF085FE0DF181
:206210000E0142F212000DF07FFEBDF808009DF80B209DF80C709DF80D609DF80E509DF887
:206230000A1004F8010B02F00102001204F8010B07F0010042EA400206F0010042EA800212
:2062500005F0070042EA4012042004F8011B22701BB0F0BD2DE9F04FAA4C04F1280000689E
:20627000ADF11C0D0EF050FB08B110F0B7FDA048DFF878B2DFF89082DFF87CA200689F4D76
:20629000059010F0E9F810F053FBE769A669B7F57A7F13D0801B4FF47A720023A7FB0001B3
:2062B0000AF042F981464FF47A72002311F0E0F83A4600230AF038F9301801E0A0EB060916
:2062D000A061DBF8000020F00200CBF8000068688047DAF80010DAF804204E468919B1F5BA
:2062F0007A7F0DD34FF47A73B1FBF3F3D218CAF804204FF47A731F46B1FBF7F25A43891AB9
:20631000CAF80010A9688847686800968047D8F804108919C8F80410A9688847D8F8000084
:2063300000285AD007464FF00009686880470490BDF80200002690B99DF8010078B99DF8B9
:2063500000003979884204DD0098796888420AD20BE09DF800103879401A387108E00098ED
:206370007968884201D3314601E07968091A7960B88878B9FB8853B9FB6843B13B8933B15A
:20639000B87A194609F034F9F8687860B88808B9FB880BB13B896BB9B9F1000F04BF3868BA
:2063B000C8F8000003D03868C9F8000038683E46074601E0B9463F68A9680498884756B15E
:2063D000B3882BB9F3881BB9B07A318909F010F9304610F08DFA002FA7D1DBF8000040F0B2
:2063F0000200CBF80000E06828B3804723E016F8060C2169A6F10C07032819D0E16A9DF893
:2064100006000978884210D116F8080C0FF058FCB979012903D0022908BFB07000E0307004
:20643000002031460CF08EFE05E010F0D7FC02E009B13046884708200727ADF80000696AC6
:20645000ADF8027068468847029E0028CFD0294800680088C8B168688047264909680022BE
:206470000E880A80A9688847059A00203146207090470646FF202070686880471D49096806
:206490000A8816430E80A96888470FF0E5FF0746B7F1FF3F1CD0686807B9194F216AB94213
:2064B00038BF0F1C80471C230646626AADF802300820ADF80000696A019268468847A16AFA
:2064D0003846491CA1620EF019FCA9683046884708200A27ADF800004FF0FF36ADF80270D4
:2064F000696A019668468847CBE6C04610E000E0780C0000E036002000260020702000206E
:206510008EC2F528A0230020C83600202DE9FE4F0546287D012807D195F917000DF08CFD7E
:20653000B0F1FF3F00F016819548EF7B017895481FB990F883208A4208DB012F03D190F80A
:2065500082208A4202DBF120BDE8FE8F80462E6A95F83500B5F8289095F83470AC8B4FF071
:20657000000A5FEA060B029017D098F83C33002B2FD0D8F8541300292BD006F0FF008847E6
:20659000D8F8541306B20BF47F008847361830B2001D00B2C83086B200E0C8260CB1241DB4
:2065B000A4B298F8E003012809D147B1764802993F1897F804A0405C8019401D86B209EB66
:2065D000040080195044801C80B210F08FF8071C02D11A20BDE8FE8F09EB0A0033193881C0
:2065F000002C03EB070078600EBF0020B819801C00217822C7F8A40007F10C0011F0B1FB69
:2066100009EB0600FF2110220019A7F84C0007F13C0011F0A6FB07F12C000F21102211F0BD
:20663000A0FB00243C707C707868696A2A8D10F007FF07F1840005F12C010B2210F000FFB8
:2066500007F19000294610F05FFD6889A7F89A00287B87F89C00687B05F10E0687F89D00E6
:20667000326869460A60706848609DF800102046012908BF01209DF80110012908BF40F0F3
:2066900004009DF80210012908BF40F008009DF80310012908BF40F010009DF8041001296A
:2066B00008BF40F020009DF80510012908BF40F040009DF80610012908BF40F080009DF8C7
:2066D0000710012908BF40F48070A7F89E00A87D87F8A000E87D87F8A10095F8380087F834
:2066F0006C00AA8BA7F8A82022B1D7F8A400A96910F0A6FEA87F87F8AA00286AC7F8AC0039
:20671000B7F8A800C0B1D7F8A400A8B17868401E7860F82101707868401E78600470B7F8FC
:20673000A810B7F8A8607868401A786038898019801C38817868B865B7F89E00410A16D39B
:2067500095F83710052905DB00F0040100F00100084302D0E820BDE8FE8F08F1880630460D
:206770000AF0C0FC95F83710304610F051FA98F8000039460CF0E6FC2046BDE8FE8FC04633
:20679000C82500204C0800203C0000002DE9F04142F20400ADF1280D0DF123010DF0B4FB0C
:2067B00042F205000DF122010DF0AEFB42F2010069460DF0A9FB8B4C8B489DF82310C4F816
:2067D000A80164204143C4F8A0118849C4F8C4119DF822104843C4F8BC018548854EC4F802
:2067F000E001B07888B342F203000DF106010DF08BFB0FF045FE05460DF1060029460CF08A
:206810009FFE2D1A9DF8220084F89B5170B1009860B104F5DC700DF0BFF904F5BA7009F085
:206830003FFB012084F8940184F8980142F202000DF106010DF068FB0DF1060010F038F8F8
:2068500004F5CE700DF0A8F911E042F202000DF106010DF059FB0DF1060010F029F804F5B8
:20687000CE700DF099F904F5BA700CF0FBFC96F8FB030EF0F7FEC07B022804BF012084F8E1
:20689000F40194F8F801002840F0A88004F128000021382211F065FA0026A681E08900EB55
:2068B000800080B280460FF0C3FD04F12805074627610FB911F027FA38463146424611F032
:2068D00050FA4D484D4FE06305F1080067630DF063F942F21B0001A90DF016FBBDF8040009
:2068F00001A9A4F84C0042F21C000DF00DFBBDF8040001A9A4F84E0042F21D000DF004FB07
:20691000BDF8040009A920835D200DF06DFE9DF8240000280CBF301C012084F85C00B4F8D7
:206930004C0038B100EB401080B20FF081FD0028606551D0B4F84E0040B1410001EB800181
:2069500088B20FF075FD0028A06543D0208B38B1C00080B20FF06CFD606108B911F0D3F9FF
:2069700027490DF11A00082210F06AFD01273546208BA84223DCB4F84C50668355B1606DB3
:206990004FF6FF720146A0F81F206D1E8E7701F12100F7D1B4F84E504DB1A06D4FF6FF719E
:2069B000024681806D1ED67002F10600F8D1201D3146062211F0D5F984F8F8710EE06069A4
:2069D0000DF11A01082200EBC50010F039FD6D1CADB2CDE711F097F911F095F90AB0BDE863
:2069F000F081C046E4190020F93B01003DC600007B7C01004C08002041AF0000002A7515AB
:206A1000A00400008E492DE9F04F06460822ADF16C0D15A810F014FD8A4C94F8F30106F1EE
:206A3000280A06F12807002800F007817078002840F00381FF20844B8DF818001D78F06C0E
:206A5000012105AA01F01AFBDFF80092DFF8008228B99DF8180008B99DF81C5070BBB089D9
:206A700000F00700022814BF04200520B073B08900F00700032807D173684046001D01688C
:206A90001878042800F09B8096F83000022815D149468878012811D001F56A710D4606F19D
:206AB0002800022220310FF00FFE38B905F116010DF13E0011F00FF90DF13E07706E002891
